:020000040800F2
:1000000060D10020310300089F3900086D320008DC
:100010009D390008D9070008E145000800000000EC
:100020000000000000000000000000007102000855
:100030009D09000800000000CD020008053E0008F0
:100040004B0300084B0300084B0300084B03000858
:100050004B0300084B0300084B0300084B03000848
:100060004B0300084B0300084B0300084B03000838
:10007000BD0800084B030008C90800084B0300082E
:10008000D50800084B0300084B0300084B03000889
:10009000DD0700084B0300084B0300084B03000872
:1000A0004B0300084B0300084B0300084B030008F8
:1000B0004B0300084B0300084B0300084B030008E8
:1000C0004B0300084B0300084B0300084B030008D8
:1000D0004B030008BD450008C9450008D545000888
:1000E0004B0300084B0300084B0300084B030008B8
:1000F0004B0300084B0300084B0300084B030008A8
:100100004B0300084B0300084B0300084B03000897
:100110004B0300084B030008D53E00084B030008C2
:100120004B0300084B030008E10800084B030008DC
:100130004B0300084B0300084B0300084B03000867
:100140004B0300084B0300084B0300084B03000857
:100150004B0300084B030008ED0800084B030008A0
:100160004B0300084B0300084B0300084B03000837
:100170004B0300084B0300084B030008000000007D
:100180004B0300084B03000800F002F800F061F890
:100190000AA090E8000C82448344AAF10107DA45E2
:1001A00001D100F056F8AFF2090EBAE80F0013F0D3
:1001B000010F18BFFB1A43F00103184748B80000AD
:1001C00068B800000A444FF0000C10F8013B13F02F
:1001D000070408BF10F8014B1D1108BF10F8015BA0
:1001E000641E05D010F8016B641E01F8016BF9D193
:1001F00013F0080F1EBF10F8014BAD1C0C1B09D1EA
:100200006D1E58BF01F801CBFAD505E014F8016B5B
:1002100001F8016B6D1EF9D59142D6D370470000ED
:100220000023002400250026103A28BF78C1FBD8FF
:10023000520728BF30C148BF0B607047642900F0E7
:100240005781002070471FB50AF0C7F91FBD10B5D0
:1002500010BD00F086FA1146FFF7F5FF06F084FFA7
:1002600000F0A4FA03B4FFF7F2FF03BC00F0AEFA0B
:100270002C4B19680868B0E8F04F80F30988BFF389
:100280006F8F4FF0000080F311887047000000006E
:1002900008480068006880F308884FF0000080F389
:1002A000148862B661B6BFF34F8FBFF36F8F00DF64
:1002B00000BF00BF08ED00E0DFF80C00016841F46A
:1002C00070010160704700BF88ED00E0EFF3098026
:1002D000BFF36F8F134B1A681EF0100F08BF20ED8D
:1002E000108A20E9F04F106009B44FF0500080F3FD
:1002F0001188BFF34F8FBFF36F8F08F025F84FF0D1
:10030000000080F3118809BC19680868B0E8F04F54
:100310001EF0100F08BFB0EC108A80F30988BFF3FD
:100320006F8F704784010020EFF305807047000055
:100330000948804709480047FEE7FEE7FEE7FEE779
:10034000FEE7FEE7FEE7FEE7FEE7FEE704480549B5
:10035000054A064B70470000C53E000889010008A9
:1003600060CB002060D1002060CD002060CD002057
:1003700053EA020C00F069802DE9F04B4FF00006C3
:10038000002B1FBFB3FA83F503FA05F424FA05F630
:100390005E4012BF1643B2FA82F502FA05F4C5F1C7
:1003A00020051EBF22FA05FC44EA0C04203556EA5B
:1003B000044C4FEA144418BF641C4FF000084FF07F
:1003C0000009904271EB030C39D3002919BFB1FA2F
:1003D00081F701FA07F6B0FA80F700FA07F6C7F1DD
:1003E00020071EBF20FA07FC46EA0C062037B6FBA2
:1003F000F4FCA7EB0507103F07F01F0BCBF120061D
:100400000CFA0BFB2CFA06F644BFB3460026202F4D
:10041000A4BF5E464FF0000B5BEA060C08BF4FF02E
:10042000010B19EB0B09ABFB027C48EB0608C01B68
:1004300006FB02CC0BFB03CC71EB0C01C1E70B46B6
:10044000024641464846BDE8F08B13B54FF0000028
:100450004FF00001AFF30080BDE81C407047000082
:100460000FB41CB5074B06AA7B446946009005985B
:1004700000F03DF90020694600F04CF91CBC5DF825
:1004800014FB0000A90200002DE9F0410E460446CD
:10049000002020622046E168884730B3252805D037
:1004A000D4E901219047206A401CF2E7E168204628
:1004B00000278847050018D0A5F14100192802D867
:1004C00020354FF400673246294620462760FFF763
:1004D000B5FE40B1012804D0F61D26F00706083607
:1004E000D8E7361DD6E72846DAE7206ABDE8F0816E
:1004F0002DE9F0410646002410687529314616A5FD
:1005000010D0AFF30080002802DA404213A507E0C4
:1005100031688A0701D512A502E0490704D511A563
:10052000012401E0AFF3008000210A2206F1240734
:1005300009E0B0FBF2FCB0FBF2F302FB1C00303030
:1005400078541846491C0028F3D123462A463046E1
:10055000BDE8F04100F06CB8000000002D00000084
:100560002B0000002000000010B5203AC0F00B80E6
:10057000B1E81850203AA0E81850B1E81850A0E8A7
:100580001850BFF4F5AF5FEA027C24BFB1E8185001
:10059000A0E8185044BF18C918C0BDE810405FEA71
:1005A000827C24BF51F8043B40F8043B08BF7047ED
:1005B000D20728BF31F8023B48BF11F8012B28BFF2
:1005C00020F8023B48BF00F8012B704702F0FF0300
:1005D00043EA032242EA024200F0A3B84FF00002CD
:1005E00000B5134694469646203922BFA0E80C5029
:1005F000A0E80C50B1F12001BFF4F7AF090728BF04
:10060000A0E80C5048BF0CC05DF804EB890028BF7F
:1006100040F8042B08BF704748BF20F8022B11F0A8
:10062000804F18BF00F8012B704770477047704724
:100630002DE9F0470D4699469246044600F12408FC
:100640000168880604D5E06921F01001216000E00E
:100650000120A84201DD471B00E00027A1697A19AB
:1006600002EB0900081AA0612078C00602D42046D7
:10067000AFF30080002608E0D4E901211AF8060053
:100680009047206A401C761C20624E45F4DB20789F
:10069000C0060AD52046AFF3008006E0D4E9012168
:1006A00030209047206A401C2062381EA7F10107C5
:1006B000F4DC07E0D4E9012118F805009047206A2E
:1006C000401C2062281EA5F10105F3DC2046AFF393
:1006D00000802078000602D50220BDE8F0870120C6
:1006E000FBE7000001694A1C02610878704700B509
:1006F0008FB0CDE901310021059105497944CDE95B
:10070000031011466846FFF7BFFE0FB000BD0000A2
:10071000E5FFFFFF0A6802F8010B0A6070474FF01F
:1007200000020429C0F0128010F0030C3FF458AF0F
:10073000CCF1040CBCF1020F18BF00F8012BA8BFCC
:1007400020F8022BA1EB0C01FFF74ABF5FEAC17C46
:1007500024BF00F8012B00F8012B48BF00F8012B43
:100760007047754600F02CF8AE46050069465346C2
:1007700020F00700854618B020B5FFF7E7FDBDE87B
:1007800020404FF000064FF000074FF000084FF0F8
:10079000000B21F00701AC46ACE8C009ACE8C00989
:1007A000ACE8C009ACE8C0098D46704710B50446F6
:1007B000AFF300802046BDE81040FFF753BD0000B6
:1007C00000487047FCCA002070470000014918200B
:1007D000ABBEFEE726000200FEE70000014800F085
:1007E0009EBA00002415002000B589B003210891AD
:1007F00040F2FF210091002108220291CDE903126D
:10080000020A8DF818208DF819008DF81A108DF84D
:100810001B10079108AB06AA6946024800F016F9BA
:1008200009B000BD24150020F8B5104C0025009536
:100830004FF40076A5602660E560082525610C4C24
:10084000050A257060704842010AA170E0705042AC
:10085000010A21716071180AA071E3716B4622468A
:100860000249044800F0F2F8F8BD00005C090020DD
:10087000880000202415002008B502210C4A0091B0
:1008800040F2FF111160002108239160C2E90313B7
:10089000084A030A117051709170D1701371507130
:1008A0009171D1716B460249034800F0CFF808BD41
:1008B000440900208000002024150020014800F099
:1008C0001BBD0000D4170020014800F015BD00003A
:1008D00034180020014800F00FBD000074170020FC
:1008E000014800F009BD0000B4160020014800F0E6
:1008F00003BD00001417002001681823CAB2103A83
:10090000B2FBF3F2054B6FF30901032A9B5CC3654D
:1009100000D9091D8165084670470000BCB9000870
:1009200010B5014600208B698A6A4FF0C07453B13C
:10093000B3F5005F15D072B1012A0CD0022A0AD09B
:10094000032A09D104E01AB1012A06D0022A03D1F0
:10095000C96AC90100D5012010BDC96AA142FAD0F7
:1009600010BD002AF7D0012AF2D0022AF3D0032AC0
:10097000F3D010BD30B50468256825F480252560C6
:10098000046863608368402B036803D09960006843
:10099000C26030BD9A600068C16030BD7047000021
:1009A000054C064D20680128FCD0E87A03F066F972
:1009B000012006F005FCF5E714010020F1020020FB
:1009C00010B500F005F8BDE81040012006F0F8BBB6
:1009D00070B5642321221149114802F0EDFB002477
:1009E0004FF4FA65012006F0EBFB641CAC42F9DB26
:1009F0000A4964230F222131094802F0DDFB32202D
:100A000006F0DEFB0549642317223031044802F06A
:100A1000D3FBBDE87040322006F0D2BB18010020A5
:100A20007016002072B6FEE790F82020012A07D049
:100A3000022A05D0416A41F48021416201207047B9
:100A4000006842690A43426100207047F0B590F89F
:100A500020500468A468012D05D0022D03D0416AFE
:100A600041F480215DE014F0406F01D1E50055D5DF
:100A7000C4F30164022C03D9416A41F4000150E03F
:100A80000125A5401D608D684FF4C0739DB1CE68EF
:100A900035434E6845EAC605066803EB0417F55171
:100AA0004FF4C275076805EB04150E697E51097D88
:100AB000012905D009E00E88CD6845EA4655EBE7E7
:100AC00001684E5946F480764E511179D5795679A0
:100AD00041EA056195792D0445EA062529434FF43D
:100AE000C676056806EB0416A9511178D57841EA57
:100AF0000561957852782D0445EA022211434FF49E
:100B0000C475026805EB04155151006803EB04112C
:100B1000425842F0010242500020F0BD416A41F4C7
:100B2000001141620120F0BD10B590F82020012A8B
:100B300007D0022A05D0416A41F480214162012098
:100B400010BD3B48D0F8002242F00102C0F800225C
:100B5000D0F8002222F47C52C0F80022D0F8002203
:100B60004B6A42EA0322C0F800220A7D02F01F030A
:100B700001229A40D0F81C329343C0F81C32CB6952
:100B8000B3B9D0F80C329343C0F80C328C894B685F
:100B900064F31F434C6900EBC404C4F840320C8971
:100BA0000B6864F31F434C6900EBC404C4F844327F
:100BB000CB69012B16D1D0F80C321343C0F80C329C
:100BC0000C884B6864F31F434C6900EBC404C4F801
:100BD00040320C89CB6864F31F434C6900EBC404BA
:100BE000C4F844328B69002BD0F804320ED0134382
:100BF000C0F804320B69002BD0F8143208D013432C
:100C0000C0F81432096A012904D008E09343EFE7E1
:100C10009343F5E7D0F81C121143C0F81C12D0F82A
:100C2000001221F00101C0F80012002010BD0000E8
:100C300000640040704730B590F82040012C05D08A
:100C4000022C03D0416A41F480215DE00468002950
:100C500055D02469A40754D04FF4D874056804EB28
:100C600001142D5915F00405956005682D594ED0D5
:100C7000ED08556005682C5904F00204D4604FF467
:100C8000DA74056804EB01142D5905F00F051561A0
:100C900005682D59C5F30725956105682C59240C65
:100CA00054614FF4DC72046802EB0112A4581C700A
:100CB0000468A458240A5C700468A458240C9C702E
:100CC0000468A258120EDA704FF4DE72046802EB68
:100CD0000112A4581C710468A458240A5C710468A9
:100CE000A458240C9C710468A258120EDA71006892
:100CF00081B1016941F020010161002030BDE4684B
:100D0000A8E7416A41F400114162012030BD6D0D38
:100D10001560AFE7C16841F02001C160EDE72DE942
:100D2000F05F0546006800244669D0F804908768A3
:100D3000D0F80CB0D0F810A0D0F81880F10748D047
:100D4000F90714D001218160B80703D5284600F0C7
:100D500072FA0CE0780702D54FF4006407E0380718
:100D600002D54FF4805402E0284600F063FAF805FB
:100D700016D529684FF480708860B80503D52846D9
:100D800000F05BFA0CE0780502D544F4005407E06B
:100D9000380502D544F4804402E0284600F04CFABD
:100DA000F80316D529684FF480308860B80303D55E
:100DB000284600F044FA0CE0780302D544F40044DD
:100DC00007E0380302D544F4803402E0284600F0FE
:100DD00035FA300707D55FEACB6004D529681020C3
:100DE00044F40074C86070074FF0080707D55FEA45
:100DF0000B7004D52868C760284600F059F9B00781
:100E000006D52868C068800702D0284600F052F94D
:100E1000700607D55FEACA6004D52968102044F43B
:100E200080640861B00607D55FEA0A7004D52868B7
:100E30000761284600F0CEF9F00606D5286800695B
:100E4000800702D0284600F0C6F9B00308D55FEA53
:100E5000C96005D5296810204860284600F0BCF913
:100E6000F00307D55FEA097004D528684760284673
:100E700000F0E6F9300446D55FEA497040D5F00548
:100E800004D55FEAC87001D044F00104B00504D570
:100E90005FEA887001D544F00204700504D55FEA6A
:100EA000487001D544F00404300529D518F0700FBE
:100EB00026D008F07000402815D006DC102809D094
:100EC00020280AD0302816D10AE050280ED06028F9
:100ED00011D10EE044F008040DE044F010040AE0E3
:100EE00044F0200407E044F0400404E044F08004AF
:100EF00001E044F480742868816921F07001816107
:100F0000296804204860002C05D0686A2043686284
:100F10002846FFF78FFEBDE8F09F70B5040003D0B0
:100F200094F8200010B104E0012070BD204600F0CC
:100F300081F82068016841F00101016000F050FC77
:100F40000546052604E000F04BFC401B0A2811D89A
:100F500020684068C007F6D02068016821F00201CF
:100F6000016000F03DFC05460BE000F039FC401B41
:100F70000A2806D9606A40F40030606284F8206074
:100F8000D2E7206840688007EFD4207E01282068DF
:100F900001683DD021F080010160607E0128206859
:100FA000016838D021F040010160A07E012820684E
:100FB000016833D021F020010160E07E0128206823
:100FC00001682ED041F010010160207F01282068C7
:100FD000016829D021F008010160607F01282068A4
:100FE000016824D021F004010160D4E90201084322
:100FF000D4E90412114308436168491E084321687B
:10100000C86100206062012084F82000002070BDCB
:1010100041F08001C0E741F04001C5E741F0200107
:10102000CAE721F01001CFE741F00801D4E741F011
:101030000401D9E710B586B0044614216846FFF7CD
:10104000CDFA18492068884229D117480021026842
:1010500042F000720260006800F0007005901248D3
:101060001038026842F001020260006800F00100DE
:1010700005904FF4C05000900220CDE901010320FB
:101080000390092004906946084800F0A7FA00225E
:101090000521142000F086FE142000F075FE06B035
:1010A00010BD0000006400404038024000000240D3
:1010B0007047000010B53D4B3D4A00212DED028BDD
:1010C0003C48FFF7B8FD3A4801683848A1F20121D1
:1010D000092957D2DFE801F00505050556560556E2
:1010E0005900CAB231491C390A70334901EB421424
:1010F0002188A181018849BA2180418849BA61804B
:10110000818849BA21818079A072208808F07AFF0D
:101110009FED2A1B53EC112B08F0D6FD9FED298B78
:1011200053EC182B08F0BEFF08F026FF6060208803
:10113000B4F90C10401A2061B4F90210002905DD41
:1011400010F57A7F09DA6069401C05E005DAB0F530
:101150007A7F02DD6069401E606161692088C1EBB1
:1011600041310844A06108F036FF9FED181B53EC95
:10117000112B08F0A9FD53EC182B08F093FF08F091
:10118000FBFEE061BDEC028B10BD0B49E0310A882B
:101190000A81028852BA0A80428852BA4A808288FA
:1011A00052BA8A8080798871ECE7000070000020D4
:1011B000B40E002024150020340800200000000098
:1011C00000FFBF40000000000080764000000000EB
:1011D00070FF1141704770477047000070B50446BA
:1011E00090F82000012804D0606A40F4002060627A
:1011F00018E0022084F820002068016821F0010135
:10120000016000F0EDFA05460EE000BF00F0E8FADC
:10121000401B0A2808D9606A40F40030606205204B
:1012200084F82000012070BD20684068C007EDD11F
:10123000606270BD70477047704770477047704775
:1012400070472DE9F0410446876D00F0C9FA064663
:1012500094F835000025022806D08020606584F8C7
:1012600034500120BDE8F0812068016821F01601AA
:1012700001602068416921F080014161206C08B95A
:10128000A06C20B12068016821F00801016020688D
:10129000016821F0010101600CE000F0A1FA801B5F
:1012A000052807D920206065032084F8350084F8DC
:1012B0003450D7E720680068C007EED194F85C107E
:1012C0003F208840B860012084F8350084F834500D
:1012D0000020C7E790F83510022903D0802141652E
:1012E00001207047052180F835100068016821F061
:1012F00001010160002070472DE9F84304464FF0DA
:101300000009CDF8009063484FF41651A56D0068B0
:10131000B0FBF1F72E6894F85C10082000FA01F198
:1013200031420FD021680A6852070BD50A6822F0B3
:1013300004020A6094F85C108840A860606D40F078
:101340000100606594F85C104FF0010808FA01F0A4
:10135000304208D021684969090604D5A860606D4B
:1013600040F00200606594F85C1004208840304230
:1013700008D021680968890704D5A860606D40F02D
:101380000400606594F85C1010208840304218D04A
:1013900021680968090714D5A86020680168490315
:1013A00004D50068000308D5A16C07E00168C905F1
:1013B00003D4016821F008010160216C09B12046C5
:1013C000884794F85C1020208840304231D0216852
:1013D0000968C9062DD5A86094F83500052820684D
:1013E000016806D0490347D5006800031DD4616C2D
:1013F0001CE021F0160101602068416921F08001A4
:101400004161206C08B9A06C20B12068016821F00E
:101410000801016094F85C103F208840A86084F8BF
:10142000358084F83490216D1FE0E16B09B12046CE
:101430008847606D00282BD0606DC00714D0052050
:1014400084F835002068016821F0010101600098EE
:10145000401C0090B84203D820680068C007F6D14D
:1014600084F8358084F83490E16C002910D001B004
:101470002046BDE8F04308470168C905D5D4016896
:1014800021F01001016084F8358084F83490CCE7B5
:10149000BDE8F883800100202DE9F041044600F00A
:1014A0009FF906465CB1022084F83500002584F8D7
:1014B00034502068016821F0010101600DE0012035
:1014C000BDE8F08100F08CF9801B052805D92020AB
:1014D0006065032084F83500F2E720680068C007E3
:1014E000F0D12268116820480140D4E90103184373
:1014F000D4E903363343184363691843A369184397
:10150000E3691843236A18430843616A042903D135
:10151000D4E90B1319430843106020684069666AD8
:1015200020F0070130460E43012704280CD1A06AA1
:101530000643E06A40B12046FFF7F2F920B14020AF
:10154000606584F83570BAE7206846612046FFF789
:10155000D3F994F85C203F2191408160656584F85F
:1015600035700020ACE700003F8010F02DE9F0411D
:101570000446866D90F83400002501280DD0012026
:1015800084F8340094F835700020012F07D084F8D7
:10159000340002252846BDE8F0810220FBE702273F
:1015A00084F8357060652046FFF7E4F994F85C1024
:1015B0003F208840B0602068016841F0160101605A
:1015C000206C20B12068016841F0080101602068AA
:1015D000016841F001010160DCE700002DE9F84FEE
:1015E000DFF8BCA10022012503264FF00F090AF104
:1015F000040BAAF1040E00BF0B6805FA02F42340A5
:10160000A34270D10F7907F00307012F01D0022FF9
:1016100016D187684FEA420806FA08FC27EA0C0749
:10162000D1F80CC00CFA08FC4CEA070CC0F808C052
:101630004768A7430C79C4F3001494403C434460CA
:101640000C79E443A4070AD0C4684FEA420C06FAB6
:101650000CF7BC438F6807FA0CF72743C7600C7977
:1016600004F00304022C12D1D40800EB840CDCF843
:1016700020405707FF0E09FA07F824EA0804D1F8BA
:10168000108008FA07F848EA0408CCF820800468BB
:101690004FEA420C06FA0CF7BC430F7907F0030738
:1016A00007FA0CF7274307604C6814F4403F70D0EA
:1016B0003C4C276847F480472760246822F00307E2
:1016C00004F480440094384C07EB040CDCF8084820
:1016D00097074FEA177809FA08F7BC43334FB84227
:1016E00002D1002724E054E0314FB84201D1012754
:1016F0001EE0304FB84201D1022719E02E4FB84208
:1017000001D1032714E02D4FB84201D104270FE087
:101710002B4FB84201D105270AE02A4FB84201D128
:10172000062705E0284FB84201D1072700E0082727
:1017300007FA08F72743CCF80878DAF8004057464C
:10174000D1F804C09C435FEACC2C00D51C433C601C
:10175000DBF800405F46D1F804C09C435FEA8C2C64
:1017600000D51C433C60DEF800407746D1F804C049
:101770009C435FEA8C3C00D51C433C60084F083F0B
:101780003C68D1F804C09C435FEACC3C00D51C43C4
:101790003C60521C102AFFF42FAFBDE8F88F000008
:1017A000083C014044380240003001400000024043
:1017B0000004024000080240000C024000100240F9
:1017C0000014024000180240001C0240006908405A
:1017D00000D0012070470AB1816170470904FBE71E
:1017E00001488068704700007401002070B5040053
:1017F00025D094F83D00002520B984F83C502046BF
:1018000000F004FA242084F83D002068016821F0EB
:10181000010101602068016841F400410160206815
:10182000016821F40041016000F0A8FB4D4A6168A5
:10183000914201D84C4900E04C49884201D2012034
:1018400070BD4B492368B0FBF1F15E6826F03F069E
:101850000E435E606368934206D94FF49673594312
:101860004FF47A73B1FBF3F12368491C1E6A26F02A
:101870003F06314319626168914210D84900401E09
:10188000B0FBF1F2521CC2F30B02042A01D2042075
:1018900022E0B0FBF1F0401CC0F30B001CE0A2689A
:1018A000F2B301EBC10303EB0116431EB3FBF6F3E6
:1018B0005B1C43F480431B0549D092B301EBC1028A
:1018C00002EB0111401EB0FBF1F0401CC0F30B0015
:1018D00040F4804040F400402168CA694CF6FF7330
:1018E0009A431043C861D4E9071001432068026895
:1018F00022F0C00211430160D4E9030101432068D2
:10190000826848F2FF339A4311438160D4E90501AC
:1019100008432168CA6822F0FF021043C86001E052
:101920000EE016E02068016841F0010101602564C5
:10193000202084F83D00256384F83E50002070BDCF
:1019400001EB4106431EB3FBF6F35B1CB3E701203A
:10195000C2E701EB4101401EB0FBF1F0401CC0F3B7
:101960000B00B7E7A086010080841E0000093D003F
:1019700040420F002DE9FF4F81B089460446FFF732
:101980002FFF054694F83D004FF0000820287DD138
:101990001923012250492046009501F0F3FC00284C
:1019A00074D194F83C00012870D0012084F83C00E8
:1019B00020680168C90703D1016841F00101016095
:1019C0002068016821F400610160242084F83D0052
:1019D000002626644148E0624FF0011B2027206862
:1019E000016841F48071016000950022594620464B
:1019F000049B01F0C7FC50B120680068C00502D507
:101A00004FF400702064032005B0BDE8F08F21681A
:101A100009F0FE000861FFF7E3FE2168054648690A
:101A20004969C0F34000C1F380214FF0A00A0FE0E4
:101A3000FFF7D6FE411B0498814200D808B984F80C
:101A40003DA0216848694969C0F34000C1F3802185
:101A500094F83D20A02A02D008B90029E8D084F8E3
:101A60003D7020684169C943890716D4016841F473
:101A700000710160206841698069192301221649BB
:101A80002046009501F07EFCB8B900E021E084F822
:101A90003D7084F83C600020B6E7016841F40071B5
:101AA000016021686FF480604861192301220A49AE
:101AB0002046009501F066FC08B10120A4E70398D8
:101AC00008F1010880458AD384F83D7084F83C60B1
:101AD000F3E7022098E70000020010000000FFFF7B
:101AE0002DE9F84F1F4690468A460446DDF82890B7
:101AF000FFF776FE054694F83D0020287FD1192394
:101B0000012240492046009501F03CFC002876D196
:101B100094F83C00012872D0012084F83C00206831
:101B20000168C90703D1016841F001010160206823
:101B3000016821F400610160212084F83D0010203B
:101B400084F83E0000262664C4F824806785608DF2
:101B500020852D48E0622B464A465146204601F03A
:101B60009DFB90B9206841698069009036E02A4663
:101B70004946204601F085FC50B1206C042804D170
:101B80002068016841F4007101600120BDE8F88F10
:101B9000606A216800780861606A401C6062618D3B
:101BA000491E6185218D491E89B2218522685369AC
:101BB000DB435B070BD451B100781061606A401CB5
:101BC0006062608D401E6085208D401E20852A4603
:101BD0004946204601F0B0FB0028CED1208D0028D8
:101BE000C5D154F83D0B016841F40071016020201B
:101BF00004F81E09E67766770020C7E7FFE70220B2
:101C0000C4E70000020010000000FFFF10B586B01E
:101C1000044614216846FEF7E1FC13492068884217
:101C200020D112480021026842F0020202600068DE
:101C300000F002000590C02000901220CDE90101C3
:101C4000032003900420049069460948FFF7C6FC6E
:101C500006481030016841F400110160006800F48A
:101C60000010059006B010BD00540040303802400E
:101C70000004024002488168027811448160704784
:101C8000740100200B4810B5016841F40071016037
:101C9000016841F480610160016841F48071016074
:101CA000032000F09FF80F2000F006F800F050F835
:101CB000002010BD003C024030B505461F4887B0EB
:101CC0000024016841F010010160006806A900F0DD
:101CD0001000009001A800F031F90498A8B100F0BC
:101CE0004DF940001649174AB0FBF1F11648491E5C
:101CF000026040F2E732C0E90324C0E901148461C4
:101D000000F0B8FB040003D015E000F037F9E9E774
:101D10000D4800F019FC04000DD1362000F034F815
:101D2000102D07D200222946362000F03BF8074844
:101D3000056000E0012407B0204630BD4038024075
:101D400040420F000010004094180020780100204D
:101D50000C4882B0016841F480410160006800F4E1
:101D6000804000900748001F016841F080510160E9
:101D70000068002200F0805000900F21901E02B0F9
:101D800000F010B844380240002809DB00F01F02C0
:101D9000012191404009800000F1E020C0F80011CD
:101DA00070470000F0B40E4B1B680C46C3F30223CF
:101DB000C3F10705042D00D90425191D072901D2F7
:101DC000002300E0DB1E012606FA05F1491E214032
:101DD00099409E40761E16403143F0BC02F001BC93
:101DE0000CED00E0064900F0070208684FF6FF031B
:101DF000184040EA0220034A104308607047000080
:101E00000CED00E00000FA052DE9F0470E46050054
:101E100065D0DFF81481D8F80000F7B200F00700B1
:101E2000B04207D288F80070D8F8000000F0070030
:101E3000B04254D128683D4C810712D5400703D5E4
:101E4000206840F4E05020602878000703D520681F
:101E500040F4604020602068A96820F0F00008434A
:101E600020602878C0072DD03049686808390128DB
:101E700012D0022813D0032811D00968890700293D
:101E80002DDA216821F0030101432160FFF7A8FC4E
:101E9000814641F2883A0EE009688903EFE7096854
:101EA0008901ECE7FFF79CFCA0EB0901514502D941
:101EB0000320BDE8F0872068696800F00C00B0EBF3
:101EC000810FEFD1D8F80010404601F00701B14270
:101ED00007D90770006800F00700B04201D0012068
:101EE000E7E72878400705D52068E96820F4E05046
:101EF000084320602878000706D52068296920F467
:101F0000604040EAC100206000F058F82168084AAB
:101F1000C1F30311515CC8400649086006480068D7
:101F2000FFF7CAFE0020C4E7003C02400838024028
:101F3000C4B9000880010020780100200F2202604F
:101F40000C4A136803F003034360136803F0F003C3
:101F50008360136803F4E053C36012684FF4E053E6
:101F600003EAD20202610448006800F0070008603A
:101F70007047000008380240003C02400448054910
:101F800000680968044AC1F38221515CC840704767
:101F90008001002008380240D4B9000804480549EF
:101FA00000680968044AC1F34231515CC840704777
:101FB0008001002008380240D4B90008154810B547
:101FC000006810F00C02144813D01449042A0FD0F2
:101FD000082A0ED10F4C241F2268236802F03F020A
:101FE0005B0207D52068C0F38810A0FB010106E062
:101FF000084610BD2168C1F38811A1FB0001002330
:10200000FEF7B6F92168C1F30141491C4900B0FB54
:10201000F1F010BD083802400024F40040787D0142
:102020002DE9F84F04006ED02078DFF84C93C007FC
:10203000A9F104054AD009F104000168C1F3810146
:10204000012908D00068C0F3810002280AD1D9F81C
:102050000000400206D52868800337D56068002854
:10206000E1D033E06068B0F5803F10D0B0F5A02F2C
:10207000286810D020F480302860286820F4802060
:1020800028606068A8B1FFF7ABFB06460DE0286842
:1020900040F48030F4E740F480202860F7E700BF88
:1020A000FFF79EFB801B642873D828688003F7D550
:1020B0000CE0FFF795FB064605E000BFFFF790FB3D
:1020C000801B6428F0D828688003F7D42078DFF8D4
:1020D000AC8280074FF0000A3ED5A748001D01687A
:1020E00011F00C0F08D00068C0F3810002280BD15A
:1020F000D9F80000400207D42868800716D5E068A8
:10210000012800D112E033E1E068B8B10120C8F83D
:102110000000FFF765FB064605E000BFFFF760FB28
:10212000801B0228C0D828688007F7D52868216955
:1021300020F0F80040EAC10028600DE0C8F800A0D7
:10214000FFF74EFB064604E0FFF74AFB801B022820
:102150001FD828688007F7D42078000722D5864F3B
:1021600087486169703771B101210160FFF738FB61
:10217000064604E0FFF734FB801B022809D83868C4
:102180008007F7D50EE0C0F800A0FFF729FB064650
:1021900005E082E0FFF724FB801B02287DD8386829
:1021A0008007F7D42078400768D5DFF8CCB1002746
:1021B0000BF13C0BDBF80000C0000BD4DBF8001087
:1021C00041F08051CBF80010DBF80000012700F04F
:1021D000805000906B4E3068C00510D4306840F4D9
:1021E00080703060FFF7FCFA009005E0FFF7F8FA26
:1021F0000099401A022850D83068C005F6D55E4EC6
:10220000A0686C3601280FD00528306810D020F067
:1022100001003060306820F004003060A068B8B180
:10222000FFF7DEFA00900FE0306840F00100F4E7BD
:1022300040F004003060F7E7FFF7D2FA0099411A46
:1022400041F28830814266D830688007F4D50EE0CC
:10225000FFF7C6FA009007E0FFF7C2FA0099411AAB
:1022600041F28830814256D830688007F4D42FB1CB
:10227000DBF8001021F08051CBF80010A069C8B342
:102280003D49091D0968C1F3810102294AD002288C
:10229000504607D0C8F8600000E03CE0FFF7A0FA25
:1022A00004463BE04746C8F86000FFF799FA064647
:1022B00005E000BFFFF794FA801B02282BD828689E
:1022C0008001F7D4D4E907010843A16A2E4A4908DE
:1022D00002EB0141626A41EA8211084394F82C1032
:1022E00040EA0161C9F8001001203866FFF778FA6A
:1022F000044606E03EE000BFFFF772FA001B02282A
:1023000009D828688001F7D534E000BFFFF768FAE4
:10231000001B022802D90320BDE8F88F286880013D
:10232000F4D427E00128F7D0D9F80000E26900F4DE
:10233000800191421CD1226A00F03F01914217D1E5
:1023400047F6C071626A0140B1EB821F10D1A26AE8
:102350004FF0FF3300F4403103EB5202B1EB024F78
:1023600006D194F82C1000F07060B0EB016F01D032
:102370000120D1E70020CFE70438024000004742A7
:10238000800E4742007000400000FFFF704770471A
:1023900010B590F83C20012A22D0012280F83C2080
:1023A000CA688C6822F4407222434C6822F480622E
:1023B00022430C6822F4006222430C6922F480520A
:1023C00022434C6922F400522243C969002322F4BB
:1023D00080420A4301684A6480F83C30002010BD06
:1023E000022010BD70B590F83C20012A32D00124A3
:1023F00080F83C40022280F83D2003685A689D68BE
:1024000022F070060A6832435A60134B02689A42FF
:1024100014D0B2F1804F11D0104B9A420ED0104B15
:102420009A420BD00F4B9A4208D00F4B9A4205D0DC
:102430000E4B9A4202D00E4B9A4204D1496825F0C5
:1024400080031943916080F83D40002180F83C10E2
:10245000084670BD022070BD00000140000400402D
:1024600000080040000C0040000401400040014012
:102470000018004010B5040003D094F83D0010B1DE
:1024800007E0012010BD002084F83C00204600F049
:102490001EF8022084F83D00211D206801F020FD77
:1024A000012084F8460084F83E0084F83F0084F858
:1024B000400084F8410084F8420084F8430084F826
:1024C000440084F8450084F83D00002010BD7047AA
:1024D00090F83D10012901D001207047022180F8B9
:1024E0003D1000681149884214D0B0F1804F11D0DE
:1024F0000F4988420ED00F4988420BD00E498842BE
:1025000008D00E49884205D00D49884202D00D49B5
:10251000884204D1816801F00701062903D00168CF
:1025200041F00101016000207047000000000140FF
:102530000004004000080040000C0040000401407E
:10254000004001400018004090F83D10012901D0E2
:1025500001207047022180F83D100168CA6842F0EE
:102560000102CA6000681149884214D0B0F1804F5E
:1025700011D00F4988420ED00E4988420BD00E4927
:10258000884208D00D49884205D00D49884202D0C2
:102590000C49884204D1816801F00701062903D063
:1025A000016841F001010160002070470000014016
:1025B0000004004000080040000C004000040140FE
:1025C0000040014000180040704770B504460068A4
:1025D00001694FF00005C943890715D4C168C94393
:1025E000890711D4E91E01610120207720688069E4
:1025F0008007204602D0FFF7E7FF04E000F0C2F8B2
:10260000204600F067F9257720680169C94349072A
:1026100017D4C168C943490713D46FF0040101619D
:10262000022020772068806910F4407F204602D085
:10263000FFF7CAFF04E000F0A5F8204600F04AF9D1
:10264000257720680169C943090716D4C168C943C1
:10265000090712D46FF00801016104202077206877
:10266000C0698007204602D0FFF7AEFF04E000F00B
:1026700089F8204600F02EF9257720680169C943C2
:10268000C90617D4C168C943C90613D46FF0100135
:102690000161082020772068C06910F4407F20463F
:1026A00002D0FFF791FF04E000F06CF8204600F044
:1026B00011F9257720680169C943C90708D1C168A4
:1026C000C943C90704D1891E0161204600F068F999
:1026D00020680169C943090609D4C168C9430906CC
:1026E00005D46FF0800101612046FFF74FFE20689E
:1026F0000169C943490609D4C168C943490605D4DB
:102700006FF040010161204600F054F92068016932
:10271000C94389060BD4C168C943890607D46FF041
:10272000200101612046BDE87040FFF730BE70BD5A
:1027300010B586B0044614216846FDF74FFF0E49D8
:102740002068884216D10D480021026842F010022C
:102750000260006800F0100005904FF4D440009033
:102760000220CDE901010120CDE9031069460448AA
:10277000FEF734FF06B010BD0000014030380240C3
:1027800000100240704770B5044690F83C000026E7
:102790000D4601280FD0012084F83C006AB1042ABC
:1027A0001DD0082A2FD00C2A3FD00126002084F803
:1027B0003C00304670BD022070BD206801F002FC74
:1027C0002068816941F0080181612068816921F0F8
:1027D00004018161206881692A69114311E0206840
:1027E00001F020FC2068816941F40061816120686A
:1027F000816921F480618161206881692A6941EAE7
:1028000002218161D2E7206801F042FC2068C169A1
:1028100041F00801C1612068C16921F00401C16172
:102820002068C1692A69114311E0206801F064FC45
:102830002068C16941F40061C1612068C16921F467
:102840008061C1612068C1692A6941EA0221C161D0
:10285000ACE710B5040003D094F83D0010B107E0D8
:10286000012010BD002084F83C00204600F01EF836
:10287000022084F83D00211D206801F031FB012079
:1028800084F8460084F83E0084F83F0084F8400055
:1028900084F8410084F8420084F8430084F844003E
:1028A00084F8450084F83D00002010BD08B500689C
:1028B0000649884208D10648016841F001010160DB
:1028C000006800F00100009008BD00000000014019
:1028D000443802407047000010B50446022249B156
:1028E00004290ED0082913D094F84100012816D0ED
:1028F000012010BD94F83E000128F9D184F83E2053
:102900000FE094F83F000128F2D184F83F2008E05E
:1029100094F840000128EBD184F8402001E084F8CD
:1029200041200122206801F03FFB16492068164A29
:10293000884201D0904203D1436C43F40043436486
:102940002068884213D0B0F1804F10D00F498842E0
:102950000DD00F4988420AD00E49884207D09042D4
:1029600005D00D49884202D00C49884204D18168C3
:1029700001F00701062903D0016841F0010101605F
:10298000002010BD00000140000401400004004090
:1029900000080040000C00400040014000180040CA
:1029A00000680349884201D1FFF764B9704700000D
:1029B000001000407047704770470000F8B501688C
:1029C00004460868CA684B6910F00F0F4FF0000505
:1029D00059D003F0010602F49077374365D0C10760
:1029E00005D0D10503D5216C41F0010121644107D7
:1029F00005D5D90703D0216C41F00201216481077C
:102A000005D5D90703D0216C41F0040121640107E9
:102A100007D502F02001314303D0216C41F00801B9
:102A20002164216C00293AD0800604D5900602D595
:102A3000204601F039FC20684069216CC0F3801009
:102A4000090700D460B3204601F0F9FB2068406913
:102A5000400621D52068143050E8001F21F04001C5
:102A600040E80012002AF5D1A06BA8B16C490165BD
:102A7000A06BFEF72FFC002811D0A06B016D01B0F8
:102A8000BDE8F040084783060FD593060DD52046D4
:102A9000BDE8F84001F008BC2046FFF78DFFF8BD07
:102AA0002046FFF789FF2564F8BD266B2023012E01
:102AB00079D1C60677D5D60675D5086848680090DE
:102AC0004869400640D5A16B086840680004000CC6
:102AD000EAD0A28D8242E7D9E085C869B0F5807F4F
:102AE0002DD020680C3050E8001F21F4807140E8A0
:102AF0000012002AF5D12068143050E8001F21F0A0
:102B0000010140E80012002AF5D12068143050E895
:102B1000001F21F0400140E80012002AF5D184F89E
:102B20003E30256320680C3050E8001F21F0100172
:102B300040E80012002AF5D1A06BFEF782FBA08DC1
:102B4000E18D401A81B229E0A08DE18D401A81B259
:102B5000E08D0028A8D00029A6D020680C3050E8CD
:102B6000002F22F4907240E80026002EF5D1206854
:102B7000143050E8002F22F0010240E80026002E19
:102B8000F5D184F83E30256320680C3050E8002FE2
:102B900022F0100240E80023002BF5D12046FFF779
:102BA0000AFFF8BDFFE705062BD5150629D594F8D1
:102BB0003D002128F5D1A068B0F5805F01D12069E2
:102BC000B0B1206A411C2162216800784860E08C25
:102BD000401E0004000CE084E3D12068C16821F0AD
:102BE0008001C1602068C16841F04001C160D8E740
:102BF000206A0088C0F308004860206A801C2062B8
:102C0000E5E74006CDD55006CBD5CA68204622F070
:102C10004002CA6084F83D3000F027FBC1E70000A5
:102C20004941000870B5040004D094F83D00002527
:102C300010B106E0012070BD84F83C50204600F041
:102C400023F8242084F83D002068C16821F4005155
:102C5000C160204601F088FB2068016921F49041A1
:102C600001612068416921F02A0141612068C16841
:102C700041F40051C1602564202084F83D0084F8AF
:102C80003E00002070BD00002DE9F04F87B00546E2
:102C900014216846FDF7A2FC8C488B490222D5F826
:102CA00000C00323DFF828E20024970606154FF042
:102CB000070A4FF440398C455CD18449A34614314E
:102CC000D1F800C04CF0100CC1F800C0096801F048
:102CD00010010591016841F0010101600068694639
:102CE00000F00100059058028DE81500CDE9033A87
:102CF0007046FEF773FCDFF8E0A176495046CAF84B
:102D00000010C0E90174C0E90346CAF82090891593
:102D1000CAF81440CAE90641B8464F46CAF82440EA
:102D2000FEF7BAFB08B1FDF77DFE6B4C6948C5F8AC
:102D300038A060347830CAF83850C4E90008402020
:102D4000A060C4E903B6C4F814B0C4F818B0C4E96C
:102D500007B72046C4F824B0FEF79EFB08B1FDF784
:102D600061FE6C63002205212520A563FFF71AF898
:102D7000252044E05549DFF864811031C44543D132
:102D8000D1F800C04CF4003CC1F800C0096801F45F
:102D900000310591016841F0010101600068694658
:102DA00000F0010005900C208DE81500CDE9033AF4
:102DB0007046FEF713FCDFF82081494908F1C0088E
:102DC0004046C8F80010C0E90174C0E90346C8F8DD
:102DD00020908915C8F81440C8E90641C8F8244075
:102DE000FEF75AFB08B1FDF71DFEC5F8388000223A
:102DF00005212620C8F83850FEF7D4FF2620FEF71C
:102E0000C3FF07B0BDE8F08FDFF8D880C445F8D124
:102E1000D1F800C0A3464CF4802CC1F800C009686A
:102E200001F480210591016841F002010160006810
:102E3000694600F0020005904FF440608DE81500EF
:102E4000CDE9033A2848FEF7C9FB2549DFF89C8005
:102E500060394046C8F80010C0E90174C0E9034673
:102E6000C8F81440C8F81840C8E90749BA464F46A0
:102E7000C8F82440FEF710FB08B1FDF7D3FD1B4C4A
:102E80001748C5F8388060343038C8F83850C4E97D
:102E9000000A4020A060C4E903B6C4F814B0C4F826
:102EA00018B0C4E907B72046C4F824B0FEF7F4FA16
:102EB00008B1FDF7B7FD6C63002205212720A5634B
:102EC000FEF770FF27209AE70010014030380240DB
:102ED0000000024040640240B4160020004400405C
:102EE000886002400048004000040240D4170020DF
:102EF00090F83E30202B0ED159B152B190F83C30B1
:102F0000012B08D0012380F83C300023036301F03B
:102F1000B1BA012070470220704790F83E30202B54
:102F20000ED159B152B190F83C30012B08D0012399
:102F300080F83C300023036301F0E6BA01207047BB
:102F4000022070472DE9F041064600688B490025B4
:102F50008B4C88427ED18B482178E2784254491CC0
:102F6000C9B221700278552A02D02570BDE8F081DF
:102F70000B29FBD390F90110512904D0522908D014
:102F8000532911D10BE050F8021F61614068A06124
:102F90000AE050F8021FE1614068206204E050F846
:102FA000021F61624068A06275482430018800EE0B
:102FB000101AF8EE400A9FED740A20EE801ADFED39
:102FC000730A734921EE201AD1F8D02201EB820254
:102FD00082ED001A428801EE102AD1F8D022B8EE14
:102FE000411A01EB820221EE001A21EE201A82ED35
:102FF000141A808801EE100AA1F16C00B8EE411A93
:1030000021EE001A61EE200AC0ED020A5C481C3075
:10301000028800EE902AF8EE600A20EE801ADFEDBA
:103020005D0AD1F8D02221EE201A01EB820282ED56
:103030003C1A428801EE102AD1F8D022B8EE411A8B
:1030400001EB820221EE001A21EE201A82ED501AC5
:10305000808800E047E001EE100AD1F8D002B8EE17
:10306000411A01EB800021EE001A61EE200AC0ED4A
:10307000640A43481430028800EE902AF8EE600A91
:1030800020EE801AF3EE000A61EE201A9FED421A3C
:10309000D1F8D02261EE811A01EB8202C2ED781ADA
:1030A000428801EE902AD1F8D022F8EE611A01EBA5
:1030B000820261EE801A61EEA01A61EE811AC2ED01
:1030C0008C1A808801EE900AD1F8D002F8EE611ACD
:1030D00001EB800021EE800A20EE200A20EE010A9A
:1030E00080EDA00A25702D4930682D4F884222D1ED
:1030F00023490122091D2B48FFF70FFF607807F1D4
:10310000110122790A54401CC0B260700978552917
:1031100001D065702AE70C28FCD31A48D7F81210A2
:10312000803040F87A1FD7F816104160798B018102
:10313000397F817265701C4930688842EAD1104934
:103140000122491D1948FFF7E8FE1949A078627964
:103150000A54401CC0B2A07009780D2901D0A57096
:1031600004E70D28D6D312480B3850F80B1F47F848
:10317000051F416879608068B860F0E70010014081
:1031800000000020EC010020000000380000344363
:10319000600500200000FA44CDCC1C4100440040F2
:1031A000EC0200202C160020004800407016002081
:1031B000F7030020704700002DE9F843044690F81B
:1031C0003D001F4616460D4620284CD1C5B1BEB164
:1031D00094F83C00012846D0012084F83C004FF0D0
:1031E0000008C4F84080212084F83D00FEF7F8FA7A
:1031F000A6848146E684A068B0F5805F03D004E031
:103200000120BDE8F883206928B12E465FF0000553
:1032100084F83C800EE00026FAE78021204601F089
:1032200090F9A0B9AEB116F8010B21684860E08CA6
:10323000401EE084E08C4B464FF0000200970028CF
:10324000EBD14FF04001204601F07BF930B1032073
:10325000D7E735F8020BC0F30800E6E7202084F832
:103260003D000020CDE70220CBE77047FEE7016874
:103270004A69D24352050FD46FF480624A6100213B
:1032800040F8301F202242738173026942F0040229
:10329000026101730120704700207047F8B50446B1
:1032A000C06A1E460D461746082807D0012805D0DB
:1032B00010F5803F02D0206B122804D120680168ED
:1032C00041F480710160134600224FF00111204645
:1032D000009600F057F840B120680068C00502D59C
:1032E0004FF4007020640320F8BD2069B0F5804FD2
:1032F0000ED00620216800EAD51040F0F0000861E9
:1033000033463A460B49204600F070F878B902E09F
:1033100005F0FE0000E0E8B2216808610549334687
:103320003A46891F204600F061F80028DCD00120D1
:10333000F8BD00000800010070B516460D460446B1
:103340000DE02046FFF793FF08B1012070BD681C17
:1033500005D0FEF745FA801BA84207D835B1206892
:103360004069C0434007ECD4002070BD002044F801
:10337000300F20216173A073216941F02001216188
:103380002073E2E72DE9F0471E4690460D460446BD
:10339000C1F30747DDF8209008E0701C06D0FEF767
:1033A0001FFAA0EB0900B0420FD876B12068012FB8
:1033B00018D0806925EA00000004000C14D0002118
:1033C0004145EAD00020BDE8F087002044F8300FE6
:1033D00020216173A073216941F0200121612073D4
:1033E0000120F0E74069E5E70121E9E72DE9F04731
:1033F0009A4691460E46044600254FF02008C1F338
:10340000074725E020684069C043400514D4206880
:10341000016841F40071016021686FF480604861C7
:10342000256384F83D8084F83E50206C40F0040011
:10343000206484F83C501FE0B9F1FF3F08D0FEF74C
:10344000CFF9A0EB0A0149450CD8B9F1000F09D01A
:103450002068012F13D0806926EA00000004000CC8
:103460000BD0CFE744F8305F84F80D80A573206956
:1034700040F02000206125730120BDE8F0874069FD
:10348000EAE770B516460D4604460DE02046FFF704
:10349000EEFE08B1012070BD681C05D0FEF7A0F952
:1034A000801BA84207D835B120684069C043000698
:1034B000ECD4002070BD002044F8300F202161734F
:1034C000A073216941F0200121612073E2E700002F
:1034D00001220E490E4800F0CDFF01220B490C4895
:1034E000FFF706FD09490122491C0A4801F00CF8C2
:1034F00006490122891C084801F006F800F00EF880
:1035000003F012FB012003F05BFEF9E7030000204B
:10351000E81500202C1600207016002010B564233A
:103520000C2214491448FFF747FE012003F048FE1F
:10353000104964230C220C390F48FFF73DFE01208F
:1035400003F03EFE0B4964230C2218390A48FFF7AA
:1035500033FE012003F034FE0020084A01461154D6
:10356000401C0628FBDB064A00201154401C06289C
:10357000FBDB10BD44000020E8150020A80000205F
:10358000AE0000200F4810B50D49016003214160D5
:1035900000214FF410228160C0E903124FF40012A1
:1035A0004261017641768176C17601774177FDF7F8
:1035B000B4FC002803D0BDE81040FDF733BA10BDBD
:1035C00000640040241500201D4808B5016841F43E
:1035D00080010160016801F480010091016841F4FB
:1035E000001101600068002200F400100090052125
:1035F0000C20FEF7D7FB0C20FEF7C6FB00220521AE
:103600000E20FEF7CFFB0E20FEF7BEFB00220521A9
:103610001020FEF7C7FB1020FEF7B6FB00220521A5
:103620003A20FEF7BFFB3A20FEF7AEFB0022052151
:103630004620FEF7B7FBBDE808404620FEF7A4BBD6
:103640003038024010B5A4B01C221C496846FCF773
:103650008BFF0021684603F0BFFD194C17491C225F
:1036600020601C3107A8FCF77FFF002107A803F0AA
:10367000B3FD124960601C2238310EA8FCF774FFBC
:1036800000210EA803F0A8FD0C49A0601C225431B3
:1036900015A8FCF769FF002115A803F09DFD074957
:1036A000E0601C2270311CA8FCF75EFF00211CA802
:1036B00003F092FD206124B010BD000030B9000875
:1036C00060010020F0B587B014216846FCF786FF42
:1036D0003E480024016841F010010160016801F0DA
:1036E00010010591016841F080010160016801F05D
:1036F00080010591016841F001010160016801F05C
:1037000001010591016841F004010160016801F0C7
:1037100004010591016841F002010160016801F0B6
:1037200002010591016841F0080101600068284E1E
:1037300000F00800059001220C213046FEF74BF8FE
:10374000244F002280213846FEF745F80C200090D7
:103750000125CDE90154694630460394FDF73EFF4B
:10376000F020CDE9000469461B480294FDF736FFBE
:103770007020CDE90004694638460294FDF72EFF1B
:1037800048F20300CDE90004694614480294FDF7AD
:1037900025FF4FF4C070CDE900046946304602941D
:1037A000FDF71CFF4FF47F40CDE9000469460C484B
:1037B0000294FDF713FF80200090CDE90154694683
:1037C00038460394FDF70AFF07B0F0BD30380240D9
:1037D00000100240000802400000024000040240C5
:1037E000000C02400D4810B50B4901600C494160C6
:1037F00000214FF480428160C0E903124161816180
:10380000C1610162FDF7F2FF002803D0BDE810405E
:10381000FDF708B910BD0000005400404C15002011
:10382000801A060010B592B000240F941C2168463F
:103830001094FCF7D3FE202107A8FCF7CFFE2C48FC
:103840002A490160A721C0E9011444F61F61C0E9BB
:10385000031444618461FEF7FCFF08B1FDF7E2F850
:103860000F940FA922481094FEF7BCFD08B1FDF794
:10387000D9F86020CDE900040294039404940594DF
:10388000002269461A480694FEF77DFF08B1FDF74D
:10389000C9F8042269461648FEF775FF08B1FDF71E
:1038A000C1F8082269461248FEF76DFF08B1FDF71E
:1038B000B9F80C2269460E48FEF765FF08B1FDF71E
:1038C000B1F80794089409944FF400500A94CDE994
:1038D0000B4007A906480E94FEF75AFD08B1FDF704
:1038E000A1F80348FEF724FF12B010BD000001400C
:1038F000A01500200C4810B50A4901604FF4E131D1
:103900004160002181600C22C160C0E90412816124
:10391000C161FFF787F9002803D0BDE81040FDF72B
:1039200081B810BD00100140E81500200C4810B50A
:103930000A4901604FF4E1314160002181600C22AD
:10394000C160C0E904128161C161FFF76BF9002811
:1039500003D0BDE81040FDF765B810BD004400403D
:103960002C1600200C4810B50A4901604FF4E131D3
:103970004160002181600C22C160C0E904128161B4
:10398000C161FFF74FF9002803D0BDE81040FDF7F3
:1039900049B810BD0048004070160020FEE7FEE761
:1039A00070B5802813D2402911D20B4B012401F0AD
:1039B00007051E79AC40094BC90800EBC1100EB1D8
:1039C00032B101E0012A03D0195CA143195470BD42
:1039D000195C2143FAE700000C010020D00E002002
:1039E00028B1FF224FF480610248FCF7EFBD0022AE
:1039F000F8E70000D00E0020014A10805180704787
:103A00000C01002010B504F041FB44F620630122B4
:103A100078215448FDF7AEFF08B1002010BD40F6F4
:103A2000C210401EFDD1AE220021782004F034FBEC
:103A300020220021782004F02FFB10220021782082
:103A400004F02AFBB0220021782004F025FBC822D4
:103A50000021782004F020FB00221146782004F099
:103A60001BFB10220021782004F016FB40220021CD
:103A7000782004F011FB81220021782004F00CFB57
:103A8000FF220021782004F007FBA12200217820EA
:103A900004F002FBA6220021782004F0FDFAA822FF
:103AA0000021782004F0F8FA3F220021782004F069
:103AB000F3FAA4220021782004F0EEFAD3220021A8
:103AC000782004F0E9FA00221146782004F0E4FAA4
:103AD000D5220021782004F0DFFAF022002178209E
:103AE00004F0DAFAD9220021782004F0D5FA222253
:103AF0000021782004F0D0FADA220021782004F0A6
:103B0000CBFA12220021782004F0C6FADB22002131
:103B1000782004F0C1FA20220021782004F0BCFAB9
:103B20008D220021782004F0B7FA14220021782099
:103B300004F0B2FAAF220021782004F0ADFA2E2270
:103B40000021782004F0A8FA0020FFF749FF00F0D8
:103B500071F805480021018041800121417108462A
:103B600010BD00004C1500200C0100202DE9F0478D
:103B7000814625480D46924601882A7811448029BD
:103B800005D28046408869780844402802D3002046
:103B9000BDE8F08700262AE0A9F1200111FB0060B2
:103BA0006A68002432F810701DE000BF07FA04F0C4
:103BB000000409D5B8F80210B8F8000031442044D8
:103BC00089B280B252460BE0BAF1000F1AD000223F
:103BD000B8F80210B8F800003144204489B280B22D
:103BE000FFF7DEFE641C2878A042DFD8761C6878D8
:103BF000B042D1D8B8F800102A7848461144A8F845
:103C00000010C5E70122E3E70C01002070B515465E
:103C10000E46044609E02A463146FFF7A7FF217801
:103C2000884201D0C8B270BD641C20780028F2D14F
:103C3000C0B270BD70B5104D002400BF04F1B000DB
:103C4000C2B20021782004F027FA00221146782021
:103C500004F022FA10220021782004F01DFA05EB6E
:103C6000C41280234021782004F026FA641CE4B2B8
:103C7000082CE3D370BD0000D00E002070B55E4963
:103C800002464842632A60D018DC362A3FD008DC5E
:103C9000A2F13002062A6ED2DFE802F01C23252DA5
:103CA0003235392A3FD004DC372A33D0382A62D162
:103CB00035E0612A3AD0622A5DD139E04F4B643A4F
:103CC0000B2A58D2DFE802F046484B4F52585B604F
:103CD000646C7A0000231A461946184603F032FE37
:103CE00059E0034601E008460B461A464FEA020136
:103CF00003F0BAFD4FE003460A4619461046F7E7BF
:103D00000B460246F4E703460022194609E0002369
:103D1000024602E0002308460A460021E8E70B4677
:103D200000220020E4E703F011FC34E00846FAE743
:103D3000002440F26635284605F0BCFE012003F061
:103D40003FFA641C0A2CF6DB70BD4FF4966005F058
:103D5000B1FE20E0012000E00220186070BD0020CC
:103D600003F0F0FB17E003460A46C1E70B460246A4
:103D700011461846BCE72EE042F2107009E041F20D
:103D80008E2003F015FE06E00020FCF72DFD02E07A
:103D90001B4803F02DFEBDE87040012003F010BA6F
:103DA000002405464FF4C866304603F003FA0120AC
:103DB00003F006FA641CAC42F6DB70BD00244FF43D
:103DC0006175284603F0F6F9012003F0F9F9641C47
:103DD000642CF6DB70BD002400231A4619461846F1
:103DE00003F0B0FD002003F0ADFB012003F0E8F983
:103DF000641C0A2CF0DB70BD18FCFFFF14010020CE
:103E0000F0D8FFFF10B5502080F31188BFF34F8F1B
:103E1000BFF36F8F04F0E8FC18B104494FF08050F5
:103E20000860002080F3118810BD000004ED00E060
:103E300030B593B030216846FCF7D0FB14210CA8B4
:103E4000FCF7CCFB1D480025016841F08051016062
:103E5000006800F0805011901948016841F48041D9
:103E600001600068022400F480401190012003905A
:103E700010200490009406940820CDE90750A82053
:103E8000CDE9090404200B906846FEF7C9F808B193
:103E900072B6FEE70CA90F2081E831004FF4A05064
:103EA0000F904FF48050109005210CA8FDF7ACFF47
:103EB000002801D072B6FEE713B030BD4038024092
:103EC000007000400248016841F4700101607047D1
:103ED00088ED00E00148FEF778BB00009418002050
:103EE000F0B50268254C264D264E274F274B4FF044
:103EF000804CA04209D0604507D0A84205D0B0420E
:103F000003D0B84201D0984204D122F0700E4A6822
:103F100042EA0E02A0421BD0604519D0A84217D039
:103F2000B04215D0B84213D0984211D0184DA842D3
:103F30000ED0184DA8420BD0174DA84208D0174DEF
:103F4000A84205D0164DA84202D0164DA84203D172
:103F500022F44075CA682A434D6922F080022A4340
:103F600002608A68C2620A688262A04201D09842F6
:103F700001D10969016301214161F0BD00000140E7
:103F80000004004000080040000C00400004014014
:103F9000004001400044014000480140001800403A
:103FA000001C00400020004010B501F01F0301215B
:103FB000046A99408C430462016A9A401143016289
:103FC00010BD0000F0B5026A22F001020262036A2D
:103FD00042688469124E24F073050C682C4323F068
:103FE00002058B682B430D4DA84201D0B04205D18C
:103FF00023F00807CB683B4323F00403A84201D019
:10400000B04205D14D6922F4407215438A692A43B2
:1040100042608461496841630362F0BD0000014071
:1040200000040140F0B5026A22F010020262026A46
:10403000436884690D6824F4E64444EA05248D68E5
:1040400022F0200242EA05120F4D104EA84201D084
:10405000B04206D1CF6822F0800242EA071222F075
:104060004002A84201D0B04207D14D6923F4406319
:1040700043EA85038D6943EA8503436084614968A7
:1040800081630262F0BD00000000014000040140B5
:10409000F0B5026A22F480720262026A4368C4695F
:1040A00022F4007224F073050C68124E2C438D68C4
:1040B00042EA05220E4DA84201D0B04206D1CF6897
:1040C00022F4006242EA072222F48062A84201D070
:1040D000B04207D14D6923F4405343EA05138D697B
:1040E00043EA05134360C4614968C1630262F0BDDD
:1040F000000001400004014030B5026A22F4805201
:104100000262046A4268C3690D6823F4E64343EA25
:1041100005238D6824F4005444EA0534084DA84270
:1041200002D0084DA84204D14D6922F4804242EAEF
:1041300085124260C36149680164046230BD0000B9
:10414000000001400004014010B5806B0021C185D2
:10415000C184FEF731FC10BD70B5846B20684069E6
:1041600094F83D10C0F3C0100025212904D118B1E6
:10417000E584204600F08AF82068406994F83E10F3
:10418000C0F38010222904D118B1E585204600F043
:1041900056F8206C40F0100020642046FEF70CFC1E
:1041A00070BD10B50146806B09680968C9052FD438
:1041B0000021C18501680C3151E8002F22F4807282
:1041C00041E80023002BF5D10168143151E8002F9C
:1041D00022F0010241E80023002BF5D101681431DF
:1041E00051E8002F22F0400241E80023002BF5D1D6
:1041F000202180F83E10016B012909D101680C31A2
:1042000051E8002F22F0100241E80023002BF5D1E5
:10421000016B012902D0FEF795FE10BD818DFEF7DE
:10422000CAFB10BD10B5806B016B012902D0FEF7EF
:10423000C1FF10BD818D4908FEF7BDFB10BD0168AF
:104240000C3151E8002F22F4907241E80023002B3A
:10425000F5D10168143151E8002F22F0010241E844
:104260000023002BF5D1016B012909D101680C3124
:1042700051E8002F22F0100241E80023002BF5D175
:10428000202180F83E1000210163704701680C3145
:1042900051E8002F22F0C00241E80023002BF5D1A5
:1042A000202180F83D10704708B590F83E10222973
:1042B00001D0022008BD82684FF480539A4201D198
:1042C000016921B1816A9A421BD04AB10AE00268B1
:1042D000816A5268C2F308020A80816A891C08E078
:1042E000026972B10268526802F07F020A70816A44
:1042F000491C8162C18D491E0904090CC18503D086
:1043000019E002685268F1E70168CA6822F02002E9
:10431000CA600168CA6822F48072CA6001684A698A
:1043200022F001024A61202180F83E10016B012930
:1043300003D0FEF707FE002008BD002101630168DD
:104340000C3151E8002F22F0100241E80023002B2D
:10435000F5D101680A68D20602D50A684968009159
:10436000818DFEF728FBE6E770B504460068016919
:10437000E26821F44051114301612169A068E269BA
:1043800008436169114308432168CA6849F20C6314
:104390009A430243CA6020684169A26921F44071CE
:1043A0001143416131492068884202D03049884236
:1043B00002D1FDF7F3FD01E0FDF7E0FDE269002326
:1043C000192164253226B2F5004F626828D0A0FB7F
:1043D0000101930F9200FBF7CBFF0146B0FBF5F014
:1043E0006FF01802504301EB800006EB0010B0FBA9
:1043F000F5F000F0F002B1FBF5F002EB0012B1FBBA
:10440000F5F06FF01803584301EB800006EB001045
:10441000B0FBF5F000F00F0021681044886070BD1B
:10442000A0FB010192185B41FBF7A2FF0146B0FB24
:10443000F5F00201B1FBF5F06FF01803584301EB02
:10444000800006EBC000B0FBF5F000F0F80002EBD6
:104450004002B1FBF5F0584301EB800006EBC000D1
:10446000B0FBF5F000F00700D6E7000000100140B7
:104470000014014038B58162828500251346044648
:104480000564222084F83E00A26B1C48D063A26B16
:104490001B481064A26B1B48D064A06B0A460565DC
:1044A0002168A06B091DFDF761F82068016840686C
:1044B000009084F83C50206948B120680C3050E8E6
:1044C000001F41F4807140E80012002AF5D12068F5
:1044D000143050E8001F41F0010140E80012002AAA
:1044E000F5D12068143050E8001F41F0400140E849
:1044F0000012002AF5D1002038BD0000A3410008B9
:10450000254200085941000881628285C285002148
:104510000164222280F83E2080F83C10016921B11C
:104520000168CA6842F48072CA6001684A6942F050
:1045300001024A610068C16841F02001C1600020A9
:1045400070472DE9F041984617460E460446069DF1
:1045500027E0681C25D02DB1FDF742F9A0EB08003B
:10456000A8421ED920680C3050E8001F21F4D071F9
:1045700040E80012002AF5D12068143050E8001FEE
:1045800021F0010140E80012002AF5D1202084F832
:104590003D0084F83E00002084F83C000320BDE884
:1045A000F0812068006836EA000004D00020B8429C
:1045B000CFD00020F3E70120F9E700000148FEF723
:1045C000FDB90000E81500200148FEF7F7B900002A
:1045D0002C1600200148FEF7F1B9000070160020EB
:1045E000FEE70907090E002804DB00F1E02080F84F
:1045F0000014704700F00F0000F1E02080F8141D57
:104600007047000000B58BB000200121CDE9060104
:1046100008910090019002900390059004906946E3
:104620000548FCF781FA0448FCF7D8FD022102484E
:10463000FCF7FAF90BB000BD24150020FFF7E2FFEC
:1046400002F0B6FFFCF7BCF9DFF808A4DFF808B405
:10465000DAF8000001287DD103F0A4FE02F04CFD41
:10466000FE4841F28831B0F90200884209DB00239C
:104670001A461946184603F0F7F8012002F0A0FD8B
:10468000F5E7F74CB4F9880005F0A5FC00EE100A38
:1046900021F0004110EE100A9FEDF21B53EC112B9C
:1046A00005F0FEFD06D2D4F8900018B10020FCF70A
:1046B000E3F8BEE2ED4C206802280BDA4FF4C86044
:1046C00002F078FD40F6B83002F06AFC012004F0F8
:1046D00023FAAEE272D1E649086806286EDA0228AB
:1046E0000DD0052808D040F6B83000BF05F0E8F935
:1046F000012004F0DBF9CFE040F2DC50F6E70024C3
:104700004FF482764FF47A75284605F0D9F90120E6
:1047100004F0CCF9012002F053FD641CB442F3DB39
:10472000DFF850830022042144464046FDF753F849
:10473000012208212046FDF74EF8C84C20690028C8
:1047400072D1002640F2145741F25C29A06905F0AD
:10475000D3FE00E029E341EC100B03F0F3FB4846E5
:1047600003F026F9C44802F0C1FE012002F028FD42
:10477000761CBE42EADB002600231A46194618467C
:10478000FCF752F80020FCF777F8012002F018FD42
:10479000761C0A2EF0DBB94F4FF48056314638466E
:1047A000FDF714F801283FD02B461A46284611463B
:1047B00003F05AF8012002F003FDEFE778E0002350
:1047C0001A4619461846FCF72FF8012020619BF87D
:1047D0000220594612B14A7802B12860E268B2F567
:1047E0007A6F0CDD2860002001E0032801DA421C0A
:1047F00000E0821E0A54401C0628F6DB0FE0A048A9
:1048000002680A608088888041F25C2003F0D0F85A
:104810004FF4C86002F0CEFC012002F0D1FCE06849
:10482000401CE06001E0FFE7964D28680128C6D1F2
:104830000122042145464046FCF7CDFF0022082115
:104840002846FCF7C8FF2069012825D1606950B1CE
:1048500022E033461A463046114603F005F801209F
:1048600002F0AEFC01E0884D884E20212846FCF77E
:10487000ADFF0128EDD1002500231A461946184640
:10488000FBF7D2FF012002F09BFC6D1C0A2DF3DB2D
:10489000012060610320206175480068052806D169
:1048A00040F2DC5005F00CF9012004F0FFF8C0E103
:1048B0006F480068062805D0684E24363168022902
:1048C0007ED0F4E06B4C002204212046FCF783FFED
:1048D000012208212046FCF77EFF6D4E002440F6A1
:1048E000C41500231A461946184602F0BDFFB1460A
:1048F000304602F0FBFD012002F062FC641CAC4279
:10490000EFDB5F4D634C002641F2301740F2DC587C
:104910004FF4C86002F04EFC0020FBF7ADFF3846B4
:1049200003F046F8E8882080287AA070012002F081
:1049300047FC761C4645EBDB002640F2BE5840F6AD
:10494000B837554802F0D2FD404602F033FC41F240
:10495000301003F02DF8012002F032FC761CBE422C
:10496000EFDB00264FF4FA6840F2BE5002F022FC62
:10497000E888A4F80300287A6071012002F020FC86
:10498000761C4645F0DB00254E4641F28E28304627
:1049900002F0ACFD40F26C7005F08CF8404603F07C
:1049A00007F84FF4617002F005FC012002F008FCEA
:1049B0006D1CBD42EBDB2F4D01220421284600E097
:1049C00072E0FCF708FF002208212846FCF703FFED
:1049D000207810B108E0032801DA411C00E0811EB4
:1049E0002154401C0628F6DB1D4A00215B46F832A4
:1049F0005D5C0020265CB54201D142F82100401CDC
:104A00000328F7DB491C0329F2DB032003211E5C8A
:104A1000655CAE4201D142F82010491C0629F7DB43
:104A2000401C0628F2DB02F033FB002400231A4668
:104A300019461846FBF7F8FE012002F0C1FB641C82
:104A4000052CF3DB40F2DD4003F0F6FD03490120C5
:104A5000243123E014010020A8000020540000208D
:104A6000340800200000000000005940B800002079
:104A7000B40000200010024040EDFFFF000C024097
:104A8000E6020020500000200008024018FCFFFF52
:104A90000CFEFFFFAE00002090E8FFFF0860FC481E
:104AA0000168491C0160F3E0F94D072809D0DFF8DF
:104AB000E08308281CD0454609285AD0052979D01A
:104AC0007BE040F6B83002F06BFA012004F024F8E5
:104AD000206805280BD128680023401C28601A464E
:104AE00019461846FBF7A0FE012002F069FBA0E082
:104AF00000244FF49665284604F0DCFF00231A4694
:104B000019461846FBF790FE012002F059FB641C81
:104B1000322CF0DBDFF87C9300264FEA490440F2A8
:104B2000DC5765422046234629462A4602F09CFE71
:104B3000484602F0DBFC40F24C4004F0BBFF012091
:104B400002F03EFB761CBE42ECDB4646306809288C
:104B50006FD00020FBF790FE2046234629462A46C8
:104B600002F082FE012003F0A1FF012002F028FBE9
:104B7000ECE702F055FA002441F28E270020FBF703
:104B80007BFE00231A4619461846FBF74DFE3846B1
:104B900002F00EFF012002F013FB641C0A2CEDDB77
:104BA0004FF49B6003F048FD2868401C28600320F8
:104BB00066E0FFE747460A2804D00B282CD00C28D3
:104BC0003CD036E040F6B83002F0EAF9012003F0BC
:104BD000A3FF206808282CD1AF4D00266C42224646
:104BE00028462B46114602F03FFE012002F0E8FA6B
:104BF000761CA642F3DB3E4630680B2819D02846C7
:104C00002B462146224602F02FFE012002F0D8FA60
:104C1000012003F04BFFEFE740F6B83003F054F902
:104C2000012003F079FF20680A2802D12868401C7F
:104C300028609A480068092824D029E002F0F0F999
:104C400000244FF4967740F24C4841F28E29002020
:104C5000FBF712FE00231A461946184602F004FE1E
:104C6000404604F027FF484602F0A2FE012002F071
:104C7000A7FA641CBC42EADB2868401C28600620B6
:104C8000306005E0DFF80882D8F800000D280DD06C
:104C9000DFF8FC81D8F800000E2834D045460F28F4
:104CA0005ED07E4E716802297ED08BE040F6B8302F
:104CB00002F076F9012003F02FFF794800680F28F1
:104CC00073D1754D002640F2DC576C4220462346D6
:104CD00029462A4602F0C8FD012002F071FA761C2E
:104CE000BE42F3DB464630680E285EDA2046234695
:104CF00029462A4602F0B8FD012002F061FA01209F
:104D000003F0D4FEEFE7012003F006FF40F6B830D1
:104D100003F0DAF8624800681228D1D15E4D00260F
:104D200040F2DC576C422046234629462A4602F0D0
:104D30009BFD012002F044FA761CBE42F3DB46469E
:104D400030680F28D1DA2046234629462A4602F049
:104D50008BFD012002F034FA012003F0A7FEEFE7FB
:104D6000002440F2A4674FF4FA7600231A4619464D
:104D70001846FBF759FD384604F09CFE012002F06E
:104D80001FFA641CB442F0DB02F082F90024002315
:104D90001A4619461846FBF747FD0020FBF76CFD45
:104DA000012002F00DFA01E00AE09AE0641CC82C30
:104DB000EDDB28683949401C28600120486018E173
:104DC000102806D0112819D0122839D005296BD007
:104DD0006DE0012003F0A0FE40F6B83002F0E0F8EC
:104DE0002F48006815287CD128680023401C2860C3
:104DF0001A4619461846FBF717FDF7E0264C002621
:104E000040F2DC5765422046234629462A4602F0F6
:104E10002BFD012002F0D4F9761CBE42F3DB46469E
:104E2000306812285DD02046234629462A4602F0E3
:104E30001BFD012002F0C4F9012003F037FEEFE76B
:104E400002F0EEF8174840F24C484FF4C87790ED66
:104E5000020A124841F28E292438002480ED060A05
:104E600000231A461946184602F0FEFC484602F096
:104E70009FFD404604F01EFE012002F0A1F9641CD3
:104E8000BC42EDDB2868401C2860032074E00BE086
:104E9000B40000200CFEFFFF18FCFFFF780000208C
:104EA000B8000020180500204746132806D0142813
:104EB00031D015283BD0082960D061E040F6B830E9
:104EC00002F06EF8012003F027FE4C480068182815
:104ED00007D14B4C002665422A4620462346114600
:104EE00000E023E002F0C0FC012002F069F9761C2A
:104EF000AE42F1DB3E46306814287AD02046234685
:104F000029462A4602F0B0FC012002F059F901209E
:104F100003F0CCFDEFE740F6B83002F0D5FF0120FA
:104F200003F0FAFD354800681A284FD061E002F01E
:104F300077F83448002441F28E2890ED020A324876
:104F40004FF496694FF47A7780ED060A00231A46EB
:104F50001946184602F088FC404602F029FD4846F2
:104F600004F0A8FD012002F02BF9641CBC42EDDB2B
:104F70002868401C2860062070603AE0162809D096
:104F80002249096831B300231A461946184602F02F
:104F90006BFC2BE04FF4FA6148420B46024602F0EC
:104FA00063FC012003F09CFD19480068052820D10E
:104FB00040F6B8374FF47A7606E0384604F080FDC4
:104FC000012002F0FDF8641CB442F6DB2868401CA6
:104FD00028600EE0172809D14FF47A7003461A466C
:104FE000114602F041FC012003F044FD012002F0D3
:104FF000E7F8012002F0E4F8FFF72ABBB800002030
:1050000018FCFFFF1805002054000020C8000020F5
:10501000C000002002F020FFDFF854B1554D564C7F
:105020004FF0000A40F2A4692068012804D104F07E
:10503000D5F8012002F0C4F82068032808D1CBF885
:1050400000A000F039FC04202060012002F0B8F834
:10505000206804281ED100264FF4A067002002F02B
:1050600071FA28684763761C0A2EF7DB00264F4644
:105070002868C763012002F0A3F8761C642EF7DBD2
:105080000020CBF800A003F063FD05202060012084
:1050900002F096F8206806280AD129684FF49B6030
:1050A000486301F091F908202060012002F088F89F
:1050B0002068082827D1314F00264FF47A783B46E4
:1050C0001A463846114602F0CFFB761C4645F6DB01
:1050D00000264FF4617740F6B838294802F006FA06
:1050E0002868076400231A461946184602F02AFC6D
:1050F000012002F065F8761C4645EEDB09202060B1
:10510000012002F05DF86068012804D104F0CEFAB5
:10511000012002F055F86068032806D100F084FEF3
:1051200004206060012002F04BF86068042811D16F
:1051300000264F462868C763012002F041F8761C1C
:10514000642EF7DB032003F003FD052060600120DF
:1051500002F036F86068062803D100F02DF9082027
:105160006060012002F02CF8012002F029F85BE7D2
:105170005C000020A01500207800002018FCFFFF34
:1051800018E3FFFF2DE9F05FDFF818B2864CDFF877
:105190001C9240F214574FF4487A4FF47A75012864
:1051A00055D002287ED003284FD1002600231A466E
:1051B0001946184602F0C6FB012002F001F8761CE1
:1051C0000A2EF3DB0026642002F0F2FB012001F03E
:1051D000F7FF761CBE42F6DB00264FF46B7857468D
:1051E000642002F0E5FB2168C1F84080012001F055
:1051F000E7FF761CBE42F3DB0026642002F0D8FBFA
:10520000584602F073F9012001F0DAFF761CBE4225
:10521000F3DB00264F46002002F094F9B88921689C
:1052200000B2C863012001F0CBFF761CAE42F2DB76
:105230005F4E0024304602F059F9012001F0C0FF12
:10524000641CAC42F6DB01203860BDE8F09F00260C
:1052500000231A461946184602F074FB012001F09B
:10526000AFFF761C0A2EF3DB0026B84640F27947E2
:10527000384602F09DFB012001F0A2FF761C464556
:10528000F4DBB84600264FF4FA77404602F090FB74
:1052900020680564012001F093FF761CBE42F4DB18
:1052A000002600E02AE0404602F082FB584602F069
:1052B0001DF9012001F084FF761C5645F1DBA04664
:1052C00000264C46002002F03DF9A089D8F80010D5
:1052D00000B2C863012001F073FF761CAE42F1DB1F
:1052E000344E0025304602F001F9012001F068FF3C
:1052F0006D1CBD42F6DB01202060A6E700260023DE
:105300001A461946184602F01DFB012001F058FF0D
:10531000761C0A2EF3DB00264FEA07084FF42577A8
:10532000384602F045FB012001F04AFF761C464555
:10533000F4DBB84600264FF4FA77404602F038FB1B
:1053400020680564012001F03BFF761CBE42F4DBBF
:105350000026404602F02CFB584602F0C7F8012018
:1053600001F02EFF761C5645F3DBA04600264C4686
:10537000002002F0E7F8A089D8F8001000B2C86356
:10538000012001F01DFF761CAE42F1DB094E002525
:10539000304602F0ABF8012001F012FF6D1CBD4257
:1053A000F6DBA8E788FAFFFFA01500209000002098
:1053B0000CFEFFFFE0FCFFFF2DE9F05FDFF82CA4FF
:1053C000032500BF1AF80500012804D002287CD06C
:1053D00003287BD18AE1002400231A461946184687
:1053E00002F0B0FA002002F0ADF8012001F0E8FE72
:1053F000641C0A2CF0DBFE4CFD4FDFF8F8833234DE
:105400004FF4807631464046FCF7E0F9012809D098
:10541000224623463846394602F026FA012001F09A
:10542000CFFEEFE7002440F279464FF4FA670023FD
:105430001A461946184602F085FA304602F0B8FAC4
:10544000012001F0BDFE641CBC42F0DBB046EA4E18
:105450000024404602F0ACFA304602F047F8012042
:1054600001F0AEFE641CBC42F3DBE04F0026E34CCF
:10547000183F4FF47A78002002F064F8B888216869
:1054800000B2C863012001F09BFE761C4645F2DBAA
:10549000DFF85CB30026ABF1FA0B4FF4966958467F
:1054A00002F024F8012001F08BFE761C4E45F6DB5D
:1054B00000264FF4FA7B4FF4C869002002F042F84E
:1054C0002168C1F84090012001E048E0E1E101F0ED
:1054D00077FE761C5E45F0DB002640F6C41941F2EB
:1054E0008E2B584602F064FA012001F069FE761C0A
:1054F0004E45F6DB00264FF4617940F2A46B21683B
:10550000C1F84090BE4801F0F1FF012001F058FEC3
:10551000761C5E45F3DBD946DFF8E8B200260020B2
:1055200002F010F8DBF8000004F0E6FF41EC100B8D
:1055300002F008FD761C4E45F1DB002600231A46DA
:105540001946184602F0FEF93889216800B2C8638E
:10555000012001F035FE761C4645EFDB99E1DFF8CE
:1055600090824FF4FA76002440F2262940F6FC0798
:10557000C6F1000B5B4632464146484602F074F9DC
:10558000012001F01DFE641CBC42F3DB3746994E3E
:105590004FF4807421463046FCF718F9012809D0F1
:1055A0003B461A463846114602F05EF9012001F0EA
:1055B00007FEEFE700244FF4FA674FF42576002347
:1055C0001A461946184602F0BDF9012001F0F8FD0F
:1055D000304602F0EDF9641CBC42F0DBDFF81882C3
:1055E0000024304602F0E4F9404601F07FFF01203C
:1055F00001F0E6FD641CBC42F3DB7C4F00267F4CCF
:10560000183F4FF47A78002001F09CFFB888216899
:1056100000B2C863012001F0D3FD761C4645F2DBE1
:10562000DFF8CCB10026ABF1FA0B4FF4966958467F
:1056300001F05CFF012001F0C3FD761C4E45F6DB56
:1056400000264FF4C869002001F07CFF2168C1F8F2
:105650004090012001F0B4FD761C4645F3DB0026A6
:1056600040F6C41B41F28E29484602F0A1F9012000
:1056700001F0A6FD761C5E45F6DB00264FF461794D
:1056800040F2A46B41F28E2002F092F92168C1F839
:1056900040905B4801F02AFF012001F091FD761C4B
:1056A0005E45EFDBD946DFF85CB10026002001F053
:1056B00049FFDBF8000004F01FFF41EC100B02F083
:1056C00041FC761C4E45F1DB002600231A461946A4
:1056D000184602F037F93889216800B2C863012002
:1056E00001F06EFD761C4645EFDBD2E0DFF800816D
:1056F0004FF4FA79002640F2262B40F6FC07C9F158
:1057000000044B4622465946404602F0ADF80120BF
:1057100001F056FD761CBE42F3DB2746354E4FF4B2
:10572000807421463046FCF751F8012809D03B46E9
:105730001A463846114602F097F8012001F040FD64
:10574000EFE7002440F2A46700231A4619461846E2
:1057500002F0F8F8642002F02BF9012001F030FD8E
:10576000641CBC42F0DB244E00244FF47A786420A1
:1057700002F01EF9304601F0B9FE012001F020FDD3
:10578000641C4445F3DBDFF864B01C4E0024ABF12D
:10579000180BC146002001F0D5FEBBF804003168AB
:1057A00000B2D846C863012001F00AFD641C4C45D4
:1057B000F0DB00244FF4966B0D48FA3801F096FEAA
:1057C000012001F0FDFC641C5C45F5DB00244FF476
:1057D000C86B002001F0B6FE3168C1F840B001206E
:1057E00001F0EEFC641C4C45F3DB0DE0A80000204A
:1057F000DAFDFFFF00100240A0F6FFFFA015002019
:10580000C4F0FFFF6C000020002441F28E2B5846AC
:1058100002F0CEF8012001F0D3FC40F6C410641C65
:105820008442F4DB00244FF4617B00BF41F28E2000
:1058300002F0BEF83168C1F840B01D4801F056FED4
:10584000012001F0BDFC641CBC42EFDBDFF864B05A
:105850000024002001F076FEDBF8000004F04CFE8E
:1058600041EC100B02F06EFB641CBC42F1DB002427
:10587000474600231A461946184602F063F838894D
:10588000316800B2C863012001F09AFC641C4C45E9
:10589000EFDB1AF8050040F24C4101F029FA012033
:1058A00001F08EFC6D1C062DFFF68CADBDE8F09F5F
:1058B000C4F0FFFF6C0000202DE9F05FFE4C0025D6
:1058C00004F1180A6069401C01D1012060611AF8D6
:1058D0000500012804D0022876D0032875D1AAE15A
:1058E000002600231A461946184602F02BF800201D
:1058F00001F028FE012001F063FC761C0A2EF0DB8B
:10590000002640F2794740F21458384602F050F829
:10591000012001F055FC761C4645F6DBDFF89C9330
:1059200000264FF47A78384602F042F8484601F0F3
:10593000DDFD012001F044FC761C4645F3DBB94651
:10594000DF4F00264FF4FA78484602F031F8002085
:1059500001F0F8FDA088396800B2C863012001F0A9
:105960002FFC761C4645EFDBDFF858B300264FF4DA
:105970009669584601F0BAFD012001F021FC761C21
:105980004E45F6DBC14600264FF4C868002001F002
:10599000D9FD3968C1F84080012001F011FC761C66
:1059A0004E45F3DB002641F28E28002001F0CAFDAF
:1059B000404601F0FDFF012001F002FC40F2DC5006
:1059C000761C8642F1DB04E064E012E2012001F083
:1059D000F7FB60690128F9D0002640F2A2380023C5
:1059E0001A461946184601F0ADFF3968C1F84080E3
:1059F00041F28E2001F0DCFFB34801F077FD012079
:105A000001F0DEFB40F6C410761C8642E7DB002680
:105A1000002001F097FDAD48006804F06DFD41ECF9
:105A2000100B02F08FFA012001F0CAFB761CB6F5CC
:105A30002F7FEDDB002600231A461946184601F099
:105A400081FF2089396800B2C863012001F0B8FBEA
:105A5000761C4E45EFDB002640F24C4940F6FC0B2D
:105A60003968C1F840803968C1F83C90954801F028
:105A70003DFD012001F0A4FB761C5E45F0DB002615
:105A8000002001F05FFD012001F09AFB761C052E3D
:105A9000F6DBAEE1002600231A461946184601F04F
:105AA00051FF002001F04EFD012001F089FB761C22
:105AB0000A2EF0DB00264FF4257740F2DC583846FA
:105AC00001F076FF012001F07BFB761C4645F6DBFA
:105AD00000264FF47A7BB946384601F069FF7748D3
